S00E000052435F4361722E737265630C
S11300000C945C000C9466000C9466000C946600DE
S11300100C9466000C9466000C9466000C946600C4
S11300200C9466000C9466000C9466000C946600B4
S11300300C9466000C9466000C9466000C946600A4
S11300400C9466000C9466000C9466000C94660094
S11300500C94660081007100710071007E007100D3
S113006071007100710071008700710071007100EE
S11300707100710084008A007100710071007100C8
S113008071007100710071007100710071007100E4
S11300907100710081007100710071007E007100B7
S11300A071007100710071008700710071007100AE
S11300B07100710084008A0011241FBECFE5D8E0CE
S11300C0DEBFCDBF0E9468000C9430020C94000087
S11300D040E060E083E00E9435010E9491000E94AC
S11300E01B020E94260290E0FC01E254F109E23373
S11300F0F105B8F7E65DFF4F0C942A020E9419013E
S1130100F0CF0E942001EDCF0E942701EACF0E9488
S11301102E01E7CF81E00E94F60082E00E94F60003
S1130120E0CF41E062E082E00E94350141E060E01E
S113013082E00E94350141E061E082E00E943501E5
S113014041E065E082E00E94350141E066E082E042
S11301500E94350141E067E082E00E943501089584
S1130160813081F441E062E082E00E94A80141E034
S113017060E082E00E94A80140E061E082E00E9429
S1130180A8010895823071F441E065E00E94A8015D
S113019041E066E082E00E94A80140E067E082E07E
S11301A00E94A8010895813081F441E062E082E078
S11301B00E94A80140E060E082E00E94A80141E0C2
S11301C061E082E00E94A8010895823071F441E068
S11301D065E00E94A80140E066E082E00E94A80178
S11301E041E067E082E00E94A8010895813081F433
S11301F040E062E082E00E94A80140E060E082E02A
S11302000E94A80140E061E082E00E94A8010895F4
S1130210823071F440E065E00E94A80140E066E0AD
S113022082E00E94A80140E067E082E00E94A80109
S1130230089581E00E94B00082E00E94B000089519
S113024081E00E94D30082E00E94D300089581E0FF
S11302500E94B00082E00E94F600089582E00E94AD
S1130260B00081E00E94F6000895423008F06FC0AB
S11302704130A1F5813089F028F08230C9F0833013
S113028011F108952AB381E090E002C0880F991F0C
S11302906A95E2F7822B8ABB089527B381E090E048
S11302A002C0880F991F6A95E2F7822B87BB0895D5
S11302B024B381E090E002C0880F991F6A95E2F7A9
S11302C0822B84BB089521B381E090E002C0880FA3
S11302D0991F6A95E2F7822B81BB0895411137C0BB
S11302E0813091F028F08230D9F0833029F10895DB
S11302F02AB381E090E002C0880F991F6A95E2F763
S1130300809582238ABB089527B381E090E002C0E0
S1130310880F991F6A95E2F78095822387BB089519
S113032024B381E090E002C0880F991F6A95E2F738
S11303308095822384BB089521B381E090E002C0BC
S1130340880F991F6A95E2F78095822381BB0895EF
S1130350423008F06FC04130A1F5813089F028F0B7
S11303608230C9F0833011F108952BB381E090E01D
S113037002C0880F991F6A95E2F7822B8BBB089500
S113038028B381E090E002C0880F991F6A95E2F7D4
S1130390822B88BB089525B381E090E002C0880FCA
S11303A0991F6A95E2F7822B85BB089522B381E0F9
S11303B090E002C0880F991F6A95E2F7822B82BBF6
S11303C00895411137C0813091F028F08230D9F07E
S11303D0833029F108952BB381E090E002C0880FA7
S11303E0991F6A95E2F7809582238BBB089528B301
S11303F081E090E002C0880F991F6A95E2F780952A
S1130400822388BB089525B381E090E002C0880F61
S1130410991F6A95E2F78095822385BB089522B3DC
S113042081E090E002C0880F991F6A95E2F78095F9
S1130430822382BB089586E880BD87E689B98AB1A4
S113044088608AB98AB180618AB908955F9BFECFBA
S11304508CB10895EE0FFF1F0590F491E02D0994DF
S1070460F894FFCF3A
S9030000FC
